:040000008CEF3FF052
:107F1800026A016A000191EF3FF00F0EC16E928074
:107F280092829284000E956E80A09DEF3FF09FEFA5
:107F38003FF0B3EF3FF0014A022A030E046E8A0EA7
:107F4800036E560EE82EFED7032EFCD7042EFAD762
:107F580080B0B1EF3FF0B3EF3FF0ACEF3FF080A25D
:107F6800B8EF3FF0BAEF3FF0C4EF3FF00106D8A0FA
:107F7800020680B2C2EF3FF0C4EF3FF0BDEF3FF022
:107F880080A4C9EF3FF0CBEF3FF0D6EF3FF0000EF3
:107F9800026E000E016E80A4D4EF3FF0D6EF3FF0E2
:107FA800CFEF3FF002BEDFEF3FF00204D8A0DFEFD3
:107FB8003FF0E1EF3FF0E5EF3FF0000E026E000EFC
:107FC800016E02BEECEF3FF0EAEF3FF0EFEF3FF05B
:107FD800000E026E016801C08CFF030E046E8A0E4B
:107FE800036E560EE82EFED7032EFCD7042EFAD7C2
:087FF80098EF3FF000EF00F0EC
:020000040030CA
:0E000000000C1F1FFF8385FF0FC00FE00F4095
:00000001FF
