:04000000ADEF3FF031
:107F3A003F0006005B004F0066006D007D000700F1
:107F4A007F00670077007C0039005E0079007100CD
:107F5A003A0EF66E7F0EF76E000EF86E00EE01F026
:107F6A0010EE20F00900F5CFEEFFE550E150FAE1FE
:107F7A000001C0EF3FF00F0EC16E000E956E969095
:107F8A009692000E246E000E236ED8902334D96E7A
:107F9A002434DA6E010ED926000EDA22DF508C6EF6
:107FAA0023B0DAEF3FF0DCEF3FF0E0EF3FF08D90E7
:107FBA008D82E2EF3FF08D808D920D0E226EAF0E14
:107FCA00216EB60EE82EFED7212EFCD7222EFAD726
:107FDA0000D0234A242A24BEFCEF3FF0245009E1B2
:107FEA00100E235CD8A0FCEF3FF0FEEF3FF0CAEF83
:067FFA003FF000EF00F073
:020000040030CA
:0E000000000C1F1FFF8385FF0FC00FE00F4095
:00000001FF
