:040000009FEF3FF03F
:107F3E00026A016A0001A4EF3FF00F0EC16E92803B
:107F4E009282000E956E80A0AFEF3FF0B1EF3FF042
:107F5E00C5EF3FF0014A022A030E046E8A0E036E2D
:107F6E00560EE82EFED7032EFCD7042EFAD780B07D
:107F7E00C3EF3FF0C5EF3FF0BEEF3FF080A2CAEF78
:107F8E003FF0CCEF3FF0D6EF3FF00106D8A002064F
:107F9E0080B2D4EF3FF0D6EF3FF0CFEF3FF002BE0E
:107FAE00DFEF3FF00204D8A0DFEF3FF0E1EF3FF04C
:107FBE00E5EF3FF0000E026E000E016E02BEECEF1A
:107FCE003FF0EAEF3FF0EFEF3FF0000E026E016878
:107FDE0001C08CFF030E046E8A0E036E560EE82E41
:107FEE00FED7032EFCD7042EFAD7AAEF3FF000EFF0
:027FFE0000F091
:020000040030CA
:0E000000000C1F1FFF8385FF0FC00FE00F4095
:00000001FF
