:040000008DEF3FF051
:107EFA003F0006005B004F0066006D007C004700F3
:107F0A007F00670077007C0039005E00790071000D
:107F1A00FA0EF66E7E0EF76E000EF86E00EE01F0A7
:107F2A0010EE20F00900F5CFEEFFE550E150FAE13E
:107F3A00276A266A0001A2EF3FF0000E256E000EA6
:107F4A00246E0F0EC16E000E956E96909692000EDC
:107F5A00256E000E246E000E236E000E226ED8903F
:107F6A002234D96E2334DA6E010ED926000EDA22B3
:107F7A00DF508C6E8D808D92410E216EEE0EE82EB2
:107F8A00FED7212EFCD700D0D8902434D96E2534C0
:107F9A00DA6E010ED926000EDA22DF508C6E8D9031
:107FAA008D82410E216EEE0EE82EFED7212EFCD7D1
:107FBA0000D0224A232A23BEECEF3FF0235009E1E6
:107FCA000A0E225CD8A0ECEF3FF0EEEF3FF0B4EFE0
:107FDA003FF0244A252A25BEFCEF3FF0255009E14F
:107FEA000A0E245CD8A0FCEF3FF0FEEF3FF0B0EFA2
:067FFA003FF000EF00F073
:020000040030CA
:0E000000000C1F1FFF8385FF0FC00FE00F4095
:00000001FF
